:020000021000EC
:108000000040002095F50100D1F50100D3F50100F5
:108010000000000000000000000000000000000060
:10802000000000000000000000000000D5F5010085
:108030000000000000000000D7F50100D9F50100A4
:10804000DBF5010091AA0100FDFB0100DBF5010059
:10805000DBF50100000000000DF60100DBF501007A
:10806000DBF50100D9FD010085FA0100DBF5010017
:10807000DBF50100DBF50100DBF50100DBF50100BC
:10808000DBF50100DBF50100DBF50100DBF50100AC
:10809000DBF5010059D8010035F30100DBF50100E3
:1080A000DBF50100DBF5010000000000000000002E
:1080B00000000000000000000000000000000000C0
:1080C00010B5064C2378002B07D1054B002B02D0AE
:1080D000044800E000BF0123237010BDB820002039
:1080E00000000000F4A6020008B5084B002B03D0E6
:1080F0000748084900E000BF07480368002B00D18B
:1081000008BD064B002BFBD09847F9E700000000A4
:10811000F4A60200BC200020AC20002000000000DB
:10812000164B002B00D1144B9D46402292029A1A06
:10813000924600218B460F461348144A121A11F03A
:108140006BF90F4B002B00D098470E4B002B00D043
:1081500098470020002104000D000D48002802D09F
:108160000C4800E000BF0CF07DFC2000290010F05E
:1081700073FE0CF061FCC0460000080000400020C7
:108180000000000000000000B02000202429002092
:10819000000000000000000010B5041C034B036049
:1081A00040300DF017FC201C10BDC0463096020078
:1081B00013B5094C201C00F01BF901A8074900F079
:1081C00061FF201C01A97822EC3002F067F901A8B8
:1081D0000DF000FC002016BDD420002090A002006D
:1081E00010B5054C201C00F043F8201C0349044A3C
:1081F00011F0B1F810BDC046D42000200582010066
:1082000000200020EB23194A9B0010B5C2501C33FC
:10821000041CC0180DF0DEFBF1239B00E0180DF0EC
:10822000D9FB84239B00E01801F084FA201CC530A0
:10823000FF3000F0B3FF201C8D30FF3001F040FA1A
:10824000201C6530FF3001F03BFA201CEC3001F0BF
:1082500045FF201CD03002F08FFA201C643007F05C
:10826000F1F8201DFFF798FF201C10BD5897020061
:108270001423F0B5041C95B0192200931821043082
:1082800002F058FC231C251C261C6433181CB43532
:1082900013211193B83607F0E1F8281C0EF042FBC9
:1082A0001E210022301C0DF0F8FF201CD03002F0FF
:1082B00083FA231CEC33181C06214A4A129301F05E
:1082C00031FF201C002701226530131C009711216B
:1082D000FF3001F001FA201C8D3000971A21022294
:1082E0000123FF3001F0F8F9201CB53001210222F2
:1082F0001A23FF3002F020FB231CC533FF331093F9
:10830000311C181C3A22042300F0D8FF84239B0060
:10831000E31813931D230093183B0193311C109A0B
:108320002B1C139801F024FC96239B00E018139952
:10833000109A129B01F0FCFD99239B00E018291C68
:108340001C2202F025FD9F239B00E0180A230093C6
:1083500001330193013302930133039301330493F7
:1083600001330593013306930133079301330893D7
:108370000133099301330A9301330B9301330C93B7
:1083800001330D9301330E93013308220F9307211C
:10839000103B0DF08AFFEB239B00E018291C03F033
:1083A00099F8F3239B00E0181D2102F00BFBFD233D
:1083B0009B00E75011982770032110F027FD231C24
:1083C000221C201C08499C33A0321C60116057609D
:1083D000064A80305A610221012207F0C9F9201CA7
:1083E00015B0F0BD789B0200235602000F56020024
:1083F0000123F0B5067889B01E4000D0B1E0041C1E
:10840000FD20800500F0F6FC231CD033181C0293DD
:1084100000F0C4FA00F0B8F9282000F023FD051C94
:1084200010300DF066FB504B6E802B80182000F052
:1084300019FD071C4D4B10C70390311C1022381C2E
:108440000693079610F0E8FF06A90822381C10F0E2
:10845000C6FF474B039A029853611223AA60EE604D
:10846000AB802E626E62291C02F01CF9002805D038
:10847000281C0DF065FA281C00F016FD0122237857
:1084800064201343237000F0A7FB0025271C6537E9
:10849000FF37381C0DF0DAFC00283DD0201C8D3051
:1084A000FF300DF0D3FC002836D0092D34DC6420D9
:1084B000013500F091FB0A2DE8D1FD262D482E490B
:1084C000B60000F069FCA359002B1CD100F062F843
:1084D000011C04A800F0D6FD05A80DF014F9012335
:1084E0000093EB239B00E01804A9029B05AA03F06C
:1084F00043F805A80DF06EFA04A80DF06BFAED2311
:108500009B00E358A351EB23211C9B00E018EC31A6
:108510003A1C03F0C9F9B9E7FD2616481649B6001A
:1085200000F03AFCA559002D1BD100F033F8011CD6
:1085300004A800F0A7FD05A80DF0E5F8EB239B00CB
:10854000E01804A9029B05AA009503F015F805A8F8
:108550000DF040FA04A80DF03DFAED239B00E3581E
:10856000A35109B0F0BDC046FD03000097560200BC
:1085700057560200001C002000200020BFF34F8F40
:10858000024A034BDA60BFF34F8FFEE70400FA059F
:1085900000ED00E0F0B589B0192201A8124910F0F1
:1085A0001EFF00220524114B261C5A718023012531
:1085B0005B055F6E381C311C07F0A0FD081C291CF0
:1085C00007F016FD0523021C611E1C1B5E435D4364
:1085D00063439B1801AA3F1A9B5C04480C1E43543A
:1085E000E8D109B0F0BDC046D3A002004E2800205B
:1085F000F0B597B018220021061C10A810F00CFF4F
:1086000010A8132110F02AFD10A8032110F0C7FDB7
:108610000122554B01921B68002B01D0DBB2019364
:1086200000240BA80021514A012307F017FA221C4D
:108630004F4BB342624153421E4072B64D4B102223
:10864000211C07A81F6810F0E7FE4B4B6421301C6B
:10865000079307F05DFD0A2107F040FE05256943F9
:10866000503179180891301C0A2107F051FD0A2178
:1086700007F034FE6943503179180991301C0A2102
:1086800007F02CFE4D4350357F190A978027BF0114
:10869000019B002B4BD00026384B751E1D4004D586
:1086A0000423013D5B421D430135B30004930023C5
:1086B0000293032C02D180270024BF01049A07AB48
:1086C000D3582F4A9C4663000133D31800220392EB
:1086D00061461878095C581E059101781020084100
:1086E0000599084204D00120904003990143039169
:1086F00001320633092AEBD1039B07AAD943214B48
:1087000009011940AB009B589C4505D1029B312BB8
:1087100002DC0BA8002101E039430BA810F0FAFDA0
:10872000FA23159A1199DB001068014201D1FFF775
:1087300025FF013B002BF7D1029B0134013302934B
:10874000FA23029A7F00E4B25B009A42B1D101366B
:10875000042EA1D1044B1B68002B99D0019B013B37
:10876000DBB2019394E7C046CC240020F0FF000068
:10877000E70300000420002022A102000300008083
:10878000ECA00200F01F000038B50023134C23605A
:108790000CF0DAFF251C002808D0201C04210CF066
:1087A000CFFF002819D00E4B236016E001220421D0
:1087B0000C4B1A60236800200B4A5060546809482B
:1087C000002CFBD0A122D20082581B020139134396
:1087D0000029F0D12B600123436038BDD024002054
:1087E000ED5EBC0B00D00040FCD00040F0B585B081
:1087F0001F1C0AAB1B88061C0D1C02920393002F42
:108800001BD0282000F02EFB6B46041C1A89039B0A
:10881000A9B200933B1C0DF07CF83368301C5B68F8
:10882000211C984700280BD0002C08D0201C0DF0EC
:1088300087F8201C00F038FB01E0024800E0024805
:1088400005B0F0BD17FCFFFF16FCFFFF38B50B4B62
:108850001C68002C10D0656D00F0D0FBA36C0029C3
:1088600001D1834206D8201C0CF0A1FF201C044932
:108870000CF08AFF2C1CECE738BDC046F824002021
:1088800000250020F0B5041C93B00793230C02933D
:10889000284B04901C68284B05911E68069285B2EF
:1088A0000027002E43D0002C2DD0636D2349039365
:1088B000A36C9AB21B0C8D4211D121498A420ED170
:1088C000002B02D0029A93421BD1002F18D1201CFA
:1088D0000CF06DFF201C1B490CF056FF10E0002A25
:1088E00001D0AA420DD1002B02D0029A934208D1A6
:1088F000201C0CF05CFF201C12490CF045FF00E02E
:108900000127039CCFE7104BEB18012B0FD9102345
:10891000291C0093029A0D4B08A80CF0FAFF33684B
:10892000301C9B6808A9984708A80DF009F813B0F7
:10893000F0BDC046F424002004250020FE03000002
:10894000FF0300000025002002FCFFFF85880100D6
:1089500010B572B60B4B1C68002C03D0201C0CF019
:1089600026FF08E062B65C2000F07CFA00215C2261
:10897000041C10F051FD0023E364034B201CE3634F
:1089800010BDC046D424002000400020024B1878BF
:10899000012318407047C04654280020F7B5061C34
:1089A000FFF7F4FF041E33D11A4D2E60FFF7D0FFFE
:1089B000194B1A4918600CF0E7FEFFF7C9FF184B76
:1089C0001860184B4363184B8363286800280ED047
:1089D000C027164E1649221C331C0097FFF706FFCE
:1089E000009728681349221C331CFFF7FFFE0C2058
:1089F00000F038FA0023838083710F4B03600F4B24
:108A0000836000F013FB01210D4A13780B431370B0
:108A1000F7BDC04604250020D824002000250020F2
:108A200008250020FC3F00207558020085880100C1
:108A3000FF030000FE030000409602004D88010085
:108A400054280020F7B5002801D1002019E00029A2
:108A5000FBD00193171C0D1C061CFFF779FF041EA9
:108A6000F3D0084B019A4363066045608760064B6C
:108A7000002A00D0054B201CA36305490CF084FE9E
:108A8000201CFEBDFC3F00203F5802005D58020044
:108A900000250020024B1868434258417047C046E9
:108AA00000250020002310B504499C006258002ACC
:108AB00001D00133F8E76050101C10BDDC24002009
:108AC000002310B5044A99008C58844201D0013328
:108AD000F8E70020885010BDDC24002010B50024E9
:108AE000074BE058002802D003685B6898470434BD
:108AF000182CF5D1034B1B68002B00D120BF10BDF3
:108B0000DC24002000250020F8B5FFF73FFF0028F7
:108B100055D02B4E3468351CE36CDA0718D5022586
:108B20002B43E3640423274F3868C26C1343C364A8
:108B3000636BC3630CF061FE3B68181C596C03F057
:108B4000B2FA3068C36C2B4239D003F0E6FA36E053
:108B50001D4F1E4E3A68002A01D1326806E0216D91
:108B6000B94203D1616D002900D00A1C2A602A682D
:108B700031688A4208D11B0706D52C60FFF7AEFF8B
:108B80003B68002BFAD02B602B68A34217D03268C9
:108B9000934204D10E4A5A630E4A9A6305E0944206
:108BA00003D10020191C021C06E0201C0CF025FE3D
:108BB0002B68201C191C626C5B6C03F033FAF8BD47
:108BC000D8240020FC2400200025002008250020B7
:108BD000FC3F00207558020038B5114B051C1C687D
:108BE000FFF7D4FE002803D1281C10F0D1FA16E0BC
:108BF000E36CDB0706D5FFF7ABFE0A4B18600028D5
:108C000000D0041C00F0FAF92818A064201C0CF015
:108C1000CEFD201C04490CF0B7FDFFF775FF38BDF1
:108C2000D8240020FC240020F8240020F0B51E4B9E
:108C300085B01C681D4B1A680393002A05D00F1CD1
:108C4000051CFFF7A3FE002801D119482AE0E36CB8
:108C5000DB070ED5FFF77CFE164B061E186008D00A
:108C60000CF0A5FD301C14490CF08EFD341CFFF7F0
:108C70004BFF3B042B43A364201C0CF098FD201CED
:108C80000E490CF081FD0E4B0020EB18012B09D989
:108C9000C0230093039B291C18683A1C094BFFF75B
:108CA000A5FD002005B0F0BDD8240020042500203B
:108CB00016FCFFFFFC24002000250020F4240020E7
:108CC00002FCFFFF8588010010B5FFF75FFE00285A
:108CD00009D0054C20680CF06AFD206803490CF0AF
:108CE00053FDFFF711FF10BDD8240020D42400202D
:108CF000F7B500282FD00C1C051CFFF747FE0028F5
:108D00002BD00726164F3868C36C1E4006D0281C8F
:108D1000211C144A0CF062FD00261FE003F0E5F967
:108D200002213A68D36C1940019103D003218B438F
:108D3000D36413E001263343D364201CA8473A6868
:108D4000D36C191CB143D164019E5B0706D5201C6E
:108D50000CF07CFD02E0044E00E0044E301CFEBD31
:108D6000D82400204D58020017FCFFFF16FCFFFF1F
:108D7000021C10B5014B12CB12C210BD0C250020F5
:108D8000034A044B12681A607E225A607047C0463C
:108D9000042000200C25002070B5124D031C2A78F9
:108DA000022A1AD081421AD90A1A072A17D9081C8E
:108DB000032218431040041E11D11A1C72B62878E1
:108DC000094EC300F0189A5141600CF059FD2B7800
:108DD00001332B7062B6201C02E0044800E0044816
:108DE00070BDC046552800201425002013FCFFFF4D
:108DF00017FCFFFF38B50021041C07F097FA002884
:108E000023D1FE21201C890507F09AFA00281CD1E5
:108E100004300BF04DFE051C0F48401B08F098F97C
:108E2000211C07F07DFE07F0BFFA03239843041CC2
:108E3000281C0BF047FE201C0BF03AFE002806D140
:108E4000203C002CF7D1054805E0054803E0011956
:108E5000FFF7A2FF002038BD0038002013FCFFFF01
:108E600017FCFFFF38B5051C00240D4B1B789C42F6
:108E700009DA0C49E300C918281C0CF009FD002888
:108E80000AD10134F1E7281C0BF012FE041E04D1B4
:108E90001420FFF7ADFB00E0041C201C38BDC046C9
:108EA000552800201425002038B5002818D00D4B77
:108EB0001C780023A34211DA0B49DA005558A84266
:108EC0000AD98A185268904206D280230438026870
:108ED0001B061343036003E00133EBE70BF0F2FDE5
:108EE00038BDC046552800201425002070B5002844
:108EF00016DD0C4B051C1A681C1C0B4E002A02D0F8
:108F000030680FF0ECFFFA21256000243068074B31
:108F100089008361C46269430FF0E9FF201C00E00F
:108F2000034870BD5425002024250020D98F01005E
:108F300017FCFFFFF8B5114F061C3D68002D0AD144
:108F40003020FFF78FFF041C06F0F6FA0C4BA561EA
:108F50002360E5623C600B4D2B68002B09D110208B
:108F6000FFF780FF041C10F00FF8201C2C600FF09E
:108F7000E5FF301CFFF7BAFFF8BDC04624250020EE
:108F8000B89A020050250020014B18687047C0466F
:108F90005425002070B50D4C2368002B03D00C4BDA
:108FA0001B68002B02D10620FFF7C4FF20680FF0DA
:108FB000DCFF021C0749C3170D684E685219734144
:108FC00020680A604B600FF0D6FF70BD502500206E
:108FD00024250020B020002010B5FFF7DBFF00247F
:108FE000054BE058002802D003681B6898470434FA
:108FF000282CF5D110BDC0462825002008B5FFF764
:10900000C9FFFA22034B920018685968002307F041
:10901000ABF908BDB020002008B5FFF7BBFF024B3D
:109020001868596808BDC046B02000200B4B10B529
:109030001B68041C002B03D0094B1B68002B02D1BA
:109040000620FFF777FF0023064A9900885800287A
:1090500001D00133F8E78C5010BDC04650250020E8
:109060002425002028250020002310B5044A99005B
:109070008C58844201D00133F8E70020885010BD9D
:109080002825002010B5041C002902D00B78002BE5
:1090900002D1034B236001E00CF0A3FC201C10BDA7
:1090A000909B0200F8B5051C0E1C141C00290AD068
:1090B0000B78002B07D0002A05D0081C97B210F0BF
:1090C000EBF9874202D90B4B2B6010E0601DFFF7D4
:1090D000C9FE28600CF065FD2868221C4780311C01
:1090E000043010F07CF92B681C1900232371281C14
:1090F000F8BDC046909B0200014B03607047C0461C
:10910000909B020010B50548054C20600CF04CFD0A
:10911000201C0449044A10F01EF910BD909B020067
:1091200058250020D559020000200020084B73B5B7
:109130001D68002D0BD0011C041C2E68083108226C
:10914000684610F04CF90CCC3168281C884773BD78
:109150005C25002010B5054C0121201C0CF018FDE9
:10916000201C0349034A10F0F6F810BD60250020CA
:109170004F5B02000020002008B5074A0388012049
:10918000934208D0834202D00020DB0703D41E2084
:10919000FFF72EFA002008BDFFFF000010B5041CE9
:1091A000034B08330360FFF78BFC201C10BDC04647
:1091B00050960200FA2370B52A4A41899B00594310
:1091C000131C3833041C181C083A1D681E1C8D42E1
:1091D0000CD2061C244B227B1D1D082A0BD8042A06
:1091E00009D89D1C022A06D81D1C04E0083B301C2F
:1091F0009342EAD1EEE7FA213068890006F0F8FEE2
:1092000060812B78201C23732A2100220CF0EFFCB4
:10921000002801D0154824E0201C2B2110220CF03E
:10922000E6FC0028F6D1201C2D2101220CF0DFFCE9
:109230000028EFD1201C2E2101220CF0D8FC0028A0
:10924000E8D16A78201C0E210CF0D1FC0028E1D175
:1092500001223379201C1A432A210CF0C8FC002873
:10926000D8D170BD989B020002A302000EFCFFFF44
:109270007FB5161C0F226A44041C1D1C1170002EA1
:1092800015D0002B13DD012301890093006B01F041
:1092900081F9002801D007480AE000902189206B5D
:1092A000321C2B1C01F02CF9002801D0F3E70248F6
:1092B00004B070BD0EFCFFFF17FCFFFFF7B5061CE6
:1092C00000250193214B14360833041C036085806C
:1092D0008571C581058245820F1C0092291C1822C8
:1092E000301C10F099F8301C1C210FF0B7FE6B46B3
:1092F0009B88211CA3806B461B8802222381142398
:109300006381231C3E313833A571227327631D709E
:109310005D700B7865879343F1321340221CA5875B
:109320000B70231C4832157055800135221DD587DE
:109330000833A21DD587201CDD87FFF73BFF0028DF
:1093400002D1A3791D43A571201CFEBD50960200D9
:1093500030B50425837987B0041C2B4204D1FFF774
:10936000A1FBA3792B43A371A36AA2691B68002503
:109370001A422AD1201C01216A460623FFF778FFF2
:10938000002801D0124D20E06B4602216846595654
:1093900000781B79227B40B25BB251435343424376
:1093A00089B2D200E281CA00228202229BB2DB0093
:1093B0006382A379201C9343A3710CF026FC012245
:1093C000A18802A8131C0CF09FFB281C07B030BD1D
:1093D0000EFCFFFFF8B5041CFFF7BAFF0E22A35ED8
:1093E0007C4F5B42BB4205DA231C3E331B789B0754
:1093F00000D5C6E0201CFFF7ABFF0E22A35EC822FB
:109400005B4200255200934205DD231C3E331B784E
:109410009B0700D4B5E0201CFFF79AFF1022A35E43
:109420005B42BB4205DA231C3E331B785B0700D549
:10943000B5E0201CFFF78CFF1022A35EC8225B4220
:109440005200934205DD231C3E331B785B0700D49A
:10945000A5E0261C201CFFF77BFF1222A35E4836E6
:10946000BB4205DA231C3E331B781B0700D5A3E063
:10947000201CFFF76DFF1223E25EC8235B009A42B7
:1094800005DD231C3E331B781B0700D494E0002D20
:1094900019D03378032B16D80133DBB23370012B8C
:1094A00004D1231C00224A331A800CE0042B0AD179
:1094B000221C01213E3213784A340B4313700023DF
:1094C00023800B3384E03278002A1AD0211C271C19
:1094D00001254A310B883E3701339BB20B80387827
:1094E000AC46054008D01D2B0BD96346984300239A
:1094F00038700B80337004E0092B02D9013A0D80DB
:109500003270201C0CF0ECFB334A072390425FDDE5
:10951000201CFFF71DFF0E23E25E304E5242032354
:10952000B24255DBC825201CFFF712FF0E23E25E76
:10953000AD0052420423AA424ADC201CFFF708FF78
:109540001023E25E02235242B24241DB201CFFF7AD
:10955000FFFE1023E25E01235242AA4238DC201CA7
:10956000FFF7F6FE1223E25E0523B24230DB201C39
:10957000FFF7EEFE1223E25E0623AA4228DC002358
:1095800026E00125211C281C3E310B785A08904307
:10959000021C0220AA40834313430B703BE70125C2
:1095A000211C281C3E310B789A089043820004202D
:1095B000834313430B704CE7211C01223E310B788F
:1095C000D80882430820D200834313430B7060E71E
:1095D000181CF8BD70FEFFFFFF700200E0FCFFFFEB
:1095E00070B5C369C2681B688AB0041C451D1A4265
:1095F00050D0EB7F002B01D0013BEB77EB7F082BAA
:109600000DD90123A2791A4209D11A43A271A18866
:109610001A1C06A80CF078FAFFF7F0FC2062EB7F2A
:10962000012B26D80123A2791A4222D00025A18835
:10963000A57102A802220CF067FAA31DDE7F012E9D
:1096400017D1FFF7DBFC2B1C226A801A994100908E
:109650000191019BA18806A8AB4203D1164B009A49
:109660009A4202D90422012301E00322331C0CF0A8
:109670004BFA0323A2791340012B1AD1FFF7BEFC4A
:109680000023226A801A9941994208D10B4B9842D3
:1096900005D80EE0EB7F0B2BB0D80133ADE70222EB
:1096A000A379A1881343A37106A8033201230CF008
:1096B0002BFA0AB070BDC046E7030000DB050000CE
:1096C00010B5041C034B08330360FFF7CDFC201CCE
:1096D00010BDC04668960200F0B5071C00250E1CA0
:1096E00085B002930AAB1B7808370393104B041C18
:1096F00008330360019285808571291C381C18226B
:109700000FF08AFE381C311C039A0FF0ACFC6B463C
:109710006A469B88127AA380A31DE671DA77631DDF
:109720002562201CDD77FFF781FC201C05B0F0BD11
:109730006896020010B5041C034B08330360FFF762
:10974000BFF9201C10BDC046809602007FB5161CD4
:109750000F226A44041C1D1C1170002E15D0002B12
:1097600013DD012301890093C06B00F013FF002873
:1097700001D007480AE000902189E06B321C2B1CC5
:1097800000F0BEFE002801D0F3E7024804B070BD2F
:109790000EFCFFFF17FCFFFF002330B585B003ACC4
:1097A000217001890093051C221CC06B013300F05D
:1097B000F1FE002801D00A480FE02070607029896E
:1097C0000090221CE86B022300F09AFE0028F2D1E0
:1097D000207863780002184300B205B030BDC0465F
:1097E0000EFCFFFF13B56B46DC1D0023221C23700B
:1097F0000133FFF7ABFF002801D1207800E00148DA
:1098000016BDC0460EFCFFFFD0B5041C0CF046FB95
:109810002269E369981A09F079F9A369061CE068DE
:109820000F1C181A09F072F9021C0B1C301C391C91
:1098300009F0C4FE0022104B08F01EFB0F4A104B2B
:1098400007F0F6FF09F0F2F90021041C06F064FDB0
:10985000002804D0201C0B4906F0F4FD041C201C39
:1098600009F090F9021C0B1C0020074908F09EFD2E
:1098700009F016F9D0BDC04600806640EA2E445477
:10988000FB2109400000B44300807640F0B5041C81
:1098900089B0006C0CF0C5FA051C206C0CF0B8FA0D
:1098A0000221071C201C0CF02AFB02210590201C21
:1098B0000CF037FB07F004FC02210190201C0CF097
:1098C00042FB07F0FDFB0290281C09F05BF9041C29
:1098D0000D1C09F023FE09F0A9F9291C0390201C96
:1098E00009F0CAFD09F0A2F90490381C09F04AF900
:1098F000041C0D1C09F012FE09F098F9291C071C24
:10990000201C09F0B9FD069007910399029807F011
:1099100007F90499041C019807F002F9011C201CA6
:1099200007F030FA09F02EF9051C05980E1C07F017
:10993000C7FB041C0698079909F078F9011C201C44
:1099400007F0EEF8391C041C019807F0E9F80399B8
:1099500007F0E6F8011C201C06F074FD391C041CFD
:10996000029807F0DDF8049907F0DAF8011C201CD2
:1099700006F068FD09F006F9021C0B1C281C311CBE
:1099800009F01CFE00220C4B08F076FA0B4A0C4B37
:1099900007F04EFF09F04AF90021041C06F0BCFC58
:1099A000002804D0201C074906F04CFD041C201C94
:1099B00007F066FB09B0F0BD00807640EA2E445403
:1099C000FB2119400000B443F8B510210022041C0B
:1099D0000CF056FA1D4E002834D1201C0821FFF748
:1099E00001FFB0422ED00325054027D1FA23184AA3
:1099F00061899B005943131C50331E1C083A1F6891
:109A0000181C8F4203D3083B061C9342F7D1FA215E
:109A10003068890006F0ECFA11216081A022201C38
:109A20000CF02EFA00280DD101223379201C1A43A4
:109A300010210CF025FA002805D003E06420FFF780
:109A4000CBF8CAE7014D281CF8BDC0460EFCFFFF4D
:109A5000D89B0200F0B50426041C807985B0304004
:109A6000051E16D10227201C0CF018FAA379062235
:109A7000BB433343A371A188012368460CF044F82B
:109A8000A379281C1A1CB243A2713B4202D102489E
:109A900000E0024805B0F0BD14FCFFFF15FCFFFF1D
:109AA00010B583795A070ED4041C9B0701D4FFF725
:109AB000D1FF236C201C002B02D0FFF7E7FE03E050
:109AC000FFF7A2FE00E0014810BDC04615FCFFFFF5
:109AD00070B5466C86B001AC051C01916260A36054
:109AE000002E0CD00B4905A8FFF7CCFA301C05A9B5
:109AF000221C0C230CF051FF05A80BF06BFF2B1C54
:109B00000C3307CC07C30222AB791343AB7106B009
:109B100070BDC04608A30200642330B5041C028156
:109B2000438185B08180FFF74FFF0222A379606CEB
:109B30009343A371002813D00C490CF0F9FE051EC5
:109B40000ED0011C0C22103101A80FF048FC201C83
:109B50000199029A039BFFF7BBFF281CFFF7A4F9AA
:109B60000122A3791343A37105B030BD08A30200FD
:109B7000F7B5009308AB1B88041C019309AB1D8843
:109B800000230F1C161C0D4A83800832837102606B
:109B9000C360036143618361C36103621D2124309B
:109BA0000CF061F9009BE7632664201C291C6364A8
:109BB000019AFFF7B1FF201CFEBDC046809602004F
:109BC00082B0F0B5051CA3B06420299328920FF051
:109BD000DFFA0C21042207A80DF053F9CF49242203
:109BE00019A80FF0FCFB052104A80A1C0DF0DEFFEC
:109BF000CB4905A802F062FBA86800F085FBAC68C1
:109C0000C84916A8FFF73EFA201C16A9782200F0D2
:109C10001BFC16A80BF0DEFE6E246420013C0FF046
:109C2000B7FA002CF9D1A86800F06EFBA8680CF018
:109C30002FFB012168680CF067F80121071C686898
:109C40000CF075F8061C0A200FF0A2FA0022B64BA1
:109C500003929F4210DB013203923A1CC8320BDBA5
:109C600004220392C8229200974205DC0322039249
:109C7000C82F01DC013A0392002202929E4210DBBF
:109C800001230293331CC8330BDB04230293C82344
:109C90009B009E4205DC03230293C82E01DC013B9E
:109CA00002935D2604A80DF078FF02ABF618371C6E
:109CB0007B78002B06D07B1E19783A7804A8FF2306
:109CC00002F092FA812302AA03379B189F42EFD138
:109CD0006B460C21595E6B4604A808229A5EFF234E
:109CE00002F082FA0023A8680093743004A91A1CB9
:109CF0000DF063FF731E1B78039A934234D13378BF
:109D0000029A934230D17778002F2DD1391C2868E0
:109D10000CF0F5F807F0D4F93A1C031C211C07A835
:109D20000DF0FAF8391C28680CF0FBF807F0C8F9B8
:109D30000122031C211C07A80DF0EEF8391C28682D
:109D40000CF001F907F0BCF9211C031C022207A842
:109D50000DF0E2F8FE23211C9B0507A803220DF05D
:109D6000DBF801237370E418812302AA03369B18E1
:109D70009E42BFD164200FF00BFA0B2C00DC58E799
:109D800007A80DF0B5F80122011C0AA80DF079F81A
:109D9000002407A80DF0ACF884423EDA211C002212
:109DA00007A80DF0A7F8211C061C002207A80DF03B
:109DB000A1F8011C301C06F0B3FE211C061C012278
:109DC00007A80DF097F80122071C211C07A80DF029
:109DD00091F8011C381C06F0A3FE011C301C06F093
:109DE00031FB211C061C022207A80DF083F8022279
:109DF000211C071C07A80DF07DF8011C381C06F07B
:109E00008FFE011C301C06F01DFB211C031C0022D0
:109E10000AA80DF081F80134BBE707A90A1C012349
:109E200016A80DF046FE16A90DA80DF08FF816A87D
:109E30000DF083F810A807A90AAA01230DF039FE36
:109E4000002313A80DA910AA0DF033FE002113A8BA
:109E50000A1C0DF04FF80121061C002213A80DF07A
:109E600049F80022041C022113A80DF043F8FC213C
:109E7000071C8905301C06F053FE07F001F9FC2190
:109E8000061C16908905201C06F04AFE07F0F8F81B
:109E9000FC21041C17908905381C06F041FE07F0D0
:109EA000EFF8221C031C311C18902868FFF710FEE5
:109EB000A8680CF0EDF905A906A8AC680DF065FEE0
:109EC00000231A4A009306A90192201C1A1C00F0D4
:109ED0005DFA06A80DF04CFEFA2080000FF058F94C
:109EE000A8680CF0D5F913A80DF027F810A80DF00C
:109EF00024F80DA80DF021F80AA80DF01EF805A809
:109F00000DF036FE04A80DF033FE07A80DF015F88D
:109F100023B0F0BC08BC02B01847C04613A302002F
:109F200037A302007CA30200E0FCFFFFDC05000079
:109F3000F0B58360204B85B01F68051C016042604E
:109F4000002F36D02820FEF78DFF041C10300BF0B8
:109F5000D0FD05232380013363801820FEF782FFA4
:109F6000164B061C0293002320C6191C01901022D8
:109F7000301C03930FF050FA02A90822301C0FF096
:109F80002EFA0F4B019A381C53610023E360C23351
:109F9000A3800023A260236263623B68211C5B688C
:109FA0009847002805D0201C0BF0CAFC201CFEF7A7
:109FB0007BFF281C05B0F0BD5C250020C19B010083
:109FC0005F5F0200F0B5041C85B0637A9C46002BED
:109FD00003D1201C0BF0EDFF69E0A37A012101936E
:109FE0001023266F019AF3560025D3189940029149
:109FF000291CF3680393039B9D4231DAB368019AED
:10A000006B439B1872695B00E77AD3181A7858780B
:10A01000E379012F04D15F1E3F1A101C3A1C0EE099
:10A02000022F05D15F1EBA1A277A013F381A06E0BF
:10A03000032F04D1277A013FBF1A021C381C5B0092
:10A040004343606F8218D3189B79634500DD6346F4
:10A05000627B1A4202D00123AB4019430135CAE7A3
:10A060001123C943F356606C994023691940029B40
:10A0700019430FF04FF9A37B072B18D8627B581CAC
:10A08000520062730B499A00A073022B03D88858C0
:10A090000FF073F899E7084B201C236300236363D8
:10A0A000064B8958E462236414300EF020FF05B09B
:10A0B000F0BDC046309C0200C59F01009F5F0200BA
:10A0C00010B5041C044B03600EF009FF201C05F0C2
:10A0D00049FA201C10BDC046B89A020010B5041CF5
:10A0E0000E4B08330360FEF7BFFF201C74300DF0E9
:10A0F0003FFD201C60300DF03BFD201C58300BF064
:10A1000069FC201C50300BF065FC201C044B143003
:10A110006361FFF7D5FF201C10BDC0469896020072
:10A12000D09A0200F8B50025041C314B8580083315
:10A13000036085711430161C0F1C05F0FDF9201CFE
:10A140002C4BE562636125645030FEF7D5FF201C7F
:10A150005830FEF7D1FF201C603002F03FF8201C81
:10A1600033682667590009B20423F25E74300DF09B
:10A170001DFD3378226FE3717368A780237210236B
:10A18000E572A5722561D356916859188B4204DA9D
:10A190000120984001330543F8E71123D168D356D5
:10A1A00059188B4206DA01229A4020690133024392
:10A1B0002261F6E71420FEF755FE226900212A43AA
:10A1C0000123061C05F04AFCFF226272221C0023B8
:10A1D0000125483266646573A3732373201C1370D2
:10A1E000A366FEF723FFA379201C2B43A371F8BDC0
:10A1F00098960200D09A0200F7B5437A041C002B0F
:10A2000003D1201C0BF0D5FE64E0837A01219C462B
:10A210001023066F0025F356634499400091291CD2
:10A22000F3680193019B9D422CDAB36872696B431A
:10A2300063445B00E77AD3181A785878E379012FE2
:10A2400004D15F1E3F1A101C3A1C0EE0022F05D1EC
:10A250005F1EBA1A277A013F381A06E0032F04D18D
:10A26000277A013FBF1A021C381C5B004343606F12
:10A270008218D3189B79002B02D00123AB401943DD
:10A280000135CFE71123C943F356606C9940236928
:10A290001940009B19430FF03DF8667AB31EDBB2FC
:10A2A000FC2B14D8FEF770FE0B4B051C2363002318
:10A2B0000A4863630A4BFF21E4622364704305F09C
:10A2C00027FF011C201C694314300EF010FE637A36
:10A2D000012B96D9F7BDC046B35F0200B60300005C
:10A2E0009F5F02001FB501228188131C68460BF096
:10A2F0000BFC012268460349131C0BF005FC05B05A
:10A3000000BDC046FE0300001FB5031C48331A7889
:10A31000041C002A0DD000221A7001328188131CFF
:10A3200068460BF0F1FB012268460449131C0BF050
:10A33000EBFB201C74300DF030FC1FBDFF03000050
:10A3400008B548300378002B06D00378012B03D0E2
:10A35000024801210BF06AFA08BDC046FF03000065
:10A3600010B50121041C06200BF060FA064B984240
:10A3700009D1231C48331A78002A04D01B78012BFA
:10A3800001D020BFF5E710BD16FCFFFF73B5079C99
:10A39000051C002C09DB061C48363078002806D046
:10A3A0003078012803D00D4816E00D4814E00698D7
:10A3B00012B2C0B20090281C1BB274300DF0FDFB2D
:10A3C0000020844207D02B1C4A331C8007234C35C5
:10A3D0002880337000E0201C76BDC04612FCFFFFD1
:10A3E00017FCFFFFF0B587B00D9E002E22DB041C8A
:10A3F000039302920F1CFFF7A3FF231C48331D7821
:10A40000EDB2002D18D1391C05A80DF0BEFB0C9B38
:10A4100005A90093029A039B0196201CFFF7B6FF43
:10A4200005A80DF0A5FB301E07D0201CFFF798FFF4
:10A43000281C02E0024800E0024807B0F0BDC04618
:10A4400017FCFFFF11FCFFFFF8B5041C171E09DD08
:10A45000061C48363378002B06D03378012B03D006
:10A460000C4816E00C4814E0221CE3795632013BFC
:10A470001370231C0025201C54331D8050300BF01A
:10A4800006FB231C4A331F800223281C4C342580E2
:10A490003370F8BD12FCFFFF17FCFFFFF7B5002A71
:10A4A0001BDD051C161C0F1CFFF74AFF2B1C483335
:10A4B0001878C4B2002C12D1391C01A80BF0DFFAB5
:10A4C00001A9321C281CFFF7BFFF01A80BF082FA7C
:10A4D000281CFFF745FF201C02E0024800E002486C
:10A4E000FEBDC04617FCFFFF11FCFFFFFF2902D88D
:10A4F0004172002000E001487047C04617FCFFFF92
:10A50000F0B51F1C85B00AAB1B78041C03930093A5
:10A510003B1C0D1C161C0EF058FC002832D0237D6D
:10A52000082B2DD823680022191CFC318A62A02137
:10A530001648C9005A5084461A5005200138C046B2
:10A54000C046C046C046C046C046C046C046C046DB
:10A55000C046C046C046F1D10120624623689850EB
:10A5600005225A5005F0D6FB039B201C0093291CA2
:10A570003B1C321C0EF029FC237D01332375CCE7F4
:10A58000034800E0207505B0F0BDC046FC0F000098
:10A590000EFCFFFFF0B51F1C85B00AAB1B78041C36
:10A5A000039300933B1C0D1C161C0EF0F6FB0028B9
:10A5B00032D0237D082B2DD823680022191CFC31B2
:10A5C0008A62A0211648C9005A5084461A500520B4
:10A5D0000138C046C046C046C046C046C046C04618
:10A5E000C046C046C046C046C046F1D101206246C2
:10A5F0002368985005225A5005F08CFB039B201CC1
:10A600000093291C3B1C321C0EF0C7FB237D013339
:10A610002375CCE7034800E0207505B0F0BDC046C7
:10A62000FC0F00000EFCFFFF70B5002926D00D1CAA
:10A630000026C468002C1ED00222A988A3884B40A3
:10A64000134216D1114203D1AB889B0707D510E006
:10A65000A068A9680CF004FC002804D1F4E7A36802
:10A66000AA68934205D12B88002B09D022889A42F0
:10A6700006D0646ADEE7201C002E0DDC07480BE0E4
:10A680006B88002B02D062889A42F2D1A388044AD8
:10A6900001361343A380ECE770BDC04617FCFFFFF3
:10A6A0000080FFFFF0B585B0002952D00D1C061CBC
:10A6B000C468002C19D0AA880023920702D5A38869
:10A6C0009B07DB0F226829688A420CD1002B06D039
:10A6D000A068A9680CF0C4FB00283CD103E0A36883
:10A6E000AA68934237D0646AE3E7F0682A88071CB7
:10A6F000031E22D01988914205D2596A1F1C0029D5
:10A700000DD00B1CF6E7191C3B1C08E00C8894428A
:10A7100007D14F886C88A74203D20B1C496A0029D5
:10A72000F4D183420BD119888A4205D3914206D1D4
:10A7300058886988884202D96B62F56002E0596ADC
:10A7400069625D626846094901230BF0DDF900206A
:10A7500009E0074807E0A3881AB2002A02DA5B047E
:10A760005B0CA380034805B0F0BDC046FD030000AC
:10A7700017FCFFFF16FCFFFF064B10B51A1C041C4C
:10A7800008322C33026043600430FEF799F9201C34
:10A7900010BDC046B096020008B4024B9C46043877
:10A7A00008BC604779A7010008B4024B9C460438F6
:10A7B00008BC6047D16302000C4A0023111C2C32F4
:10A7C000083110B5038183724260C3600361436145
:10A7D00043830160041C0430FEF764F9044B1A68DB
:10A7E000002A00D11C60201C10BDC046B09602009B
:10A7F0005C250020F7B50E1C0125C4680192002CD1
:10A8000037D0238832889A4201D0002B26D1638822
:10A8100072889A4201D0002B20D1FEF7B7F80123AD
:10A82000002806D0A288BF331340C03B5A42534190
:10A83000DBB2019A934210D1A7883BB2002B0CDB0C
:10A84000201C311C103010220EF0C9FD7B0607D4ED
:10A85000FEF79CF8002803D006E00025646ACEE7E6
:10A86000201C0BF0BEFDF9E7211C0348FEF740FA5F
:10A87000F4E7281CFEBDC046E363020008B4024BA7
:10A880009C46043808BC604767650200F0B587B095
:10A8900001930EAB1B88061C03930D9B0D1C0093AC
:10A8A000019B02920C9F002B3DD0002F02D1009BF8
:10A8B000DB0738D52820FEF7D5FA041C10300BF042
:10A8C00018F96B461B89258063801820FEF7CAFAA9
:10A8D0000497071C051C009B00210593019B102277
:10A8E00008C7381C0EF098FD04A90822381C0EF089
:10A8F00076FD0E4B02226B610023A5600399E36095
:10A900002362636233680A43A2805B68301C211CA7
:10A910009847002808D0201C0BF012F8201CFEF7E6
:10A92000C3FA034800E0034807B0F0BD9365020096
:10A9300016FCFFFF17FCFFFFF0B5041C161C0025DA
:10A940008380164A164B857102602181468105730A
:10A95000186889B08C46A8421DD0124A0595049209
:10A960006A4604AB82CB82C2C023614602932A1C92
:10A97000231CFFF78BFF0B4A094B06926A461868A7
:10A98000079506AB82CB82C2C023311C02932A1CDE
:10A99000231CFFF77BFF201C09B0F0BDF8960200D6
:10A9A0005C250020BD66020030B50024037301233E
:10A9B000034D84710560818082734373846030BD70
:10A9C0001097020070B5041C00250D4B0E1C0833B7
:10A9D000858085710360211C18300BF02BFF201C33
:10A9E000211C20300BF049FF064BA680A571E571B4
:10A9F0002572E56025616561201C1C6070BDC04644
:10AA000020970200642500208379DB0702D5C1600E
:10AA1000002000E00048704716FCFFFF8379DB0749
:10AA200001D5C06800E001487047C04616FCFFFF32
:10AA300038B54569002D22D0037A032B21D8041C98
:10AA4000FFF7ECFFA8622C20FEF70CFA2C22002165
:10AA5000051C0EF0E1FC0023626953622369002BA0
:10AA600001D1226105E0596A002901D00B1CFAE7E7
:10AA70005A62237A656101332372002002E00248A2
:10AA800000E0024838BDC04617FCFFFF13FCFFFF83
:10AA9000154B70B55A68154D002A03D000225A6034
:10AAA0000132AA601B69114E002B1CD000210E4BF5
:10AAB0000F4C19618023DB00F358012B0ED1A92321
:10AAC000DB00F15820684942FFF79EFF2068FFF73E
:10AAD000AFFF23685A69074BF25002E02068FFF786
:10AAE00093FF0123AB6070BDFC10004000100040DC
:10AAF0006425002004050000031C0069002809D01B
:10AB00000221054AD167426A1A611A7A013A1A7219
:10AB1000024B19607047C04604E100E000E100E02C
:10AB200008B5002903DB024B19600EF0BAF908BD25
:10AB30006825002070B5041C1E1C04AB1D7804F0B1
:10AB4000B1FC201C0E4B40302360FEF7D5FA231CCD
:10AB500001364C330135221C1E701D730023E12188
:10AB60004E32A3646365138053809381D381013B8C
:10AB7000201C63644902FFF7D3FF201C70BDC04650
:10AB800030960200F7B580277F053D697C69082271
:10AB9000113C6C43061C211C68460EF020FC104B37
:10ABA000009A9A4219D00093002301937969301CCE
:10ABB000133969430BF076FE019A301C00990BF0B3
:10ABC00089FE301C211C0BF06DFE7969AB0813392E
:10ABD0006943301C221C0BF06FFE0198FEBDC0467D
:10ABE000FECA0000F0B50D1CABB00D920021302262
:10ABF000061C12A80B930EF00FFC281C0EF04CFC48
:10AC0000431C0C93102B00DDB6E00B9B202B00D9CE
:10AC1000B2E0301C291C0BF08BFE071E29D1291C29
:10AC20000C9A12A80EF0DBFB0D990B9A16A80EF0E9
:10AC3000D6FB80235B051F695A69301C113A7A43A1
:10AC40005D690D92FFF79EFF0D9B002108333022B6
:10AC5000041C1EA80F930EF0DFFB291C1339794347
:10AC6000301C0BF01FFE0F9B0B9300230C930E93D5
:10AC700035E010300D990B9A0EF0A2FB041C381C25
:10AC8000FEF712F9002C7AD0C9E70B991EA83022E2
:10AC90000EF0A5FB1EA812A90EF0F4FB002822D18D
:10ACA0003849301C221C109111940BF013FE6A4697
:10ACB0000B9B099315AB23CB23C223CB23C223CBFE
:10ACC00023C2301C149B1299139A0BF011FE01231E
:10ACD0000E930B9B30330B930C9B01330C930C9B0B
:10ACE000A342D2DB10E06A460B9B099321AB23CB36
:10ACF00023C223CB23C223CB23C2301C1E991F9A0D
:10AD0000209B0BF0F5FDE4E7E5433021ED172540EE
:10AD10004D430F9B5D190E9B002B1BD1B81E05F0F8
:10AD200067F984422AD017490134301C221C109143
:10AD300011940BF0CFFD6A46099515AB23CB23C2C6
:10AD400023CB23C223CB23C2301C1299139A149B0A
:10AD50000BF0CEFD301C0D990BF0A4FD80235B059C
:10AD600059690C236343133979430233301C0D9A1C
:10AD70000BF0A2FD002402E0034C00E0034C201C79
:10AD80002BB0F0BDFECA000017FCFFFF13FCFFFF55
:10AD900038B58280FA2200230D4D920008350560F7
:10ADA00041618371C26083604382041C081C0949AD
:10ADB0000BF0BEFD051E09D0011C201C1031123005
:10ADC00002220EF00CFB281CFEF76EF8201C38BD8A
:10ADD000389702008AA3020030B50225837987B034
:10ADE000041C2B4204D1FDF75DFEA3792B43A37114
:10ADF000201C0BF0E3FD00282BD06B46DD1C281C2B
:10AE00000BF0D3FD2B78002B03D001A80BF0CBFD6A
:10AE10000EE00122104B1A60104B5A68002AFBD03A
:10AE200000225A600E4B01321B6801930A4B5A6094
:10AE3000019BDA17920FD3189B102382FEF7DEF8DE
:10AE40000122E368A1881818A060131C02A80AF068
:10AE50005BFE002007B030BD00C00040FCC00040D9
:10AE600008C50040022802D10122014B1A70704728
:10AE70005628002038B5064C051C2378002B04D139
:10AE8000044801F073FF01232370281C38BDC0461D
:10AE90005728002065AE010038B50C1C0AF054FCA0
:10AEA000002811D0154B00221D1C1A70A40A201C6A
:10AEB0000BF099FD002803D00A200EF069F9F6E79F
:10AEC0002B78002BFCD018E002210D4A0D4B995035
:10AED000111C8022D20098580028FAD0A120094DD8
:10AEE000C0002C5098580028FCD00020054A505033
:10AEF0008022D2009A58002AFAD038BD5628002065
:10AF00000405000000E00140F8B50D1C161C1C1CD7
:10AF10000AF01AFC002812D0184B00221F1C1A70CD
:10AF2000281C311C221C0BF05CFD002803D00A20D9
:10AF30000EF02EF9F4E73B78002BFCD01CE0104A11
:10AF4000012194460F4B99508022D2009A58002A32
:10AF5000FAD000228027FF00A24207DA9100705841
:10AF60006850D9590029FCD00132F3E7002261462C
:10AF70005A50DA59002AFCD0F8BDC04656280020A5
:10AF80000405000000E0014010B5041C054B083327
:10AF900003601C300AF01EFD201C18300AF01AFD58
:10AFA000201C10BD50970200FF23F0B52B4C8DB034
:10AFB00023700023051C69460088009303F08AFA79
:10AFC000002802D16B469B782370254E3368DB68DE
:10AFD000002B06D1002128880A1C0B1C0BF007FD52
:10AFE0003AE02378032BF5D81E4901A8FEF74AF86A
:10AFF000336801A9DE6804A80AF041FD301C04A9E9
:10B000000BF0C5FC061C04A80AF0E4FC371E1ED099
:10B01000311C2022103104A80EF0E1F9301CFDF79C
:10B0200043FF217804ABC9005918082202A80EF08A
:10B03000D6F9288802A9082201230BF0D8FC0127A1
:10B04000002804D128880C21074A0BF0CEFC01A867
:10B050000AF0C0FC002FBDD00DB0F0BD882000204C
:10B060006C25002092A30200FFFF0000F0B5837959
:10B0700091B0041C5B071BD5FDF7C0FF00232269BC
:10B08000801A9941994203D1F423FF3398420FD992
:10B09000A068002808D0364B1D8801F031FA0368FB
:10B0A000291C1B6A152298470422A3799343A37194
:10B0B000A3799B0759D52E4B2E4D1F882B68DB6833
:10B0C000002B4ED02C4B1A780193032A49D82B49D8
:10B0D00004A8FDF7D7FF2B6804A9DE6808A80AF0CA
:10B0E000CEFC08A9301C0BF052FC061C08A80AF084
:10B0F00071FC02AB9A1D0823381C138006A9073B7C
:10B100000BF077FC002E08D0311C08A8103120224B
:10B110000EF065F9301CFDF7C7FE019B06A91E78ED
:10B1200008ABF6009E1902ABDA88301C0EF048F925
:10B13000002813D0082206A9301C0EF050F92B6805
:10B1400004A9DD6805A80AF09AFC281C05A908AA2C
:10B1500020230BF022FC05A80AF03CFC04A80AF00E
:10B1600039FC0222A3799343A37111B0F0BDC0460C
:10B17000002800206C2500208820002092A30200D7
:10B18000F8B58C1EE4B2051C069E132C22D80120B3
:10B19000071CA7403C1C244F3C421BD0E97F5C1895
:10B1A00069181F2C3EDC701C814203D90878C854F2
:10B1B0000139F8E70021C8B2984204D2545C7018F3
:10B1C00084700131F7E732789A183270EA7F9B1861
:10B1D000EB770DE03478013CE4B2A3420AD10021C0
:10B1E000C8B2984204D2545C701884700131F7E7F9
:10B1F000002017E0EF7F0120DF193F1B1F2F11DC1C
:10B20000A01C3618EF7FE819864205D23778301B2C
:10B21000023807700136F5E73C1B023C281CEC772E
:10B220000BF032FCF8BDC0463F000800F0B585B019
:10B2300001930AAB1E880BAB1B78451C02930EAB27
:10B240001B78041C03930B78171C03704B8A102285
:10B2500043820131281C0EF0C2F86B469B8826837E
:10B2600063836B461B7B002623776B4601221B7A88
:10B270006761E683EB77A31CDA770C9B0C2563628E
:10B28000231C201C0D9A28331A705E709E70311C8E
:10B290002A1C2C300EF0C0F8201C074BE663A36379
:10B2A000311C2A1C40300EF0B7F8201C034B2665D9
:10B2B000E36405B0F0BDC046096A0200FB69020004
:10B2C00038B50D1C01F01CF9041C0368002D02D1D7
:10B2D0005B69984708E09B689847854204D22368D9
:10B2E000201C9B689847051CFA208000684302498F
:10B2F00004F07EFEE08038BD71020000F0B5071C4E
:10B30000161CA1B002C7041C6A4918A81D1C0BF02A
:10B3100001FC331E03D0301C0EF0BEF883B20222B3
:10B32000019200220292039201320093049218A922
:10B33000321C381CFFF77AFF231C18A858335E49CB
:10B3400006930BF0E7FB2B1E03D0281C0EF0A4F88D
:10B3500083B20222019200220292039201320093F0
:10B36000049218A92A1C0698FFF760FF231C18A84E
:10B37000AC33524907930BF0CDFB269B002B03D037
:10B38000181C0EF089F883B2022201920022029268
:10B39000039201320093049218A9269A0798FFF7A6
:10B3A00045FF631CFF3318A8454908930BF0B2FB17
:10B3B000279B002B03D0181C0EF06EF883B20222DC
:10B3C000019200220292039201320093049218A982
:10B3D000279A0898FFF72AFF231C5533FF3318A834
:10B3E000384909930BF096FB289B002B03D0181CBF
:10B3F0000EF052F883B202220192002202920392CE
:10B4000001320093049218A9289A0998FFF70EFFB9
:10B41000231CA933FF3318A82B490A930BF07AFB9E
:10B42000299B002B03D0181C0EF036F883B20222A1
:10B430000192002218AD029203920132009304920D
:10B440000A98291C299AFFF7F1FE204B1B780B93D1
:10B45000002B2CD1069B12971393079B0DAF1493CF
:10B46000089B1B491593099B381C16930A9B12AE27
:10B4700017930BF04FFB49201D213B7810222B70B6
:10B480007B8A6B8206ABC918C0180DF0A8FF062393
:10B490002B756B469B8D2068AB83AE6101F040F845
:10B4A0000368291C1B6898470122084B1A70201C4E
:10B4B00021B0F0BD292A0000242A0000252A00001E
:10B4C000272A0000262A0000282A000058280020E9
:10B4D0000A18000038B50025041C0A4B8580083383
:10B4E00085710360C1601830FDF706FE201C1C301A
:10B4F000FDF702FE044BA5601C6001236561201C62
:10B50000A37138BD509702006C250020FA2130B598
:10B5100085B0051C89006846022201230AF0F4FA6E
:10B52000074C2068002809D00BF02EFB2988054B1A
:10B5300022681980022193790B43937105B030BDC5
:10B540006C2500200028002010B507290CD8806841
:10B550000C1C00F0D5FF054A036811575B6C984737
:10B56000002802D0024800E0024810BD9DA402005D
:10B5700016FCFFFF17FCFFFFF0B59E4C0D1CA54409
:10B58000041C07939AAB1B789B4909A80493069265
:10B59000FDF778FD201C291C1C300AF078FAC02029
:10B5A000800001F0D9FB0820FDF75CFC061C00219F
:10B5B00000F05EFF15ADA66000210C220EA80DF074
:10B5C0002BFF2B1C0EAA83CA83C38C4B301CEB6051
:10B5D0000023291C2B610CF083FBA06800F090FF76
:10B5E00000210C220590281C0DF016FF1420FDF7F9
:10B5F00039FC834B2A1C1593031CC2CAC2C3814B5E
:10B60000059EC3600023A43603613368002B00D07D
:10B6100003613060A06800F083FF00210C22061C4B
:10B62000281C0DF0F9FE1420FDF71CFC764B159339
:10B63000031C86CD86C3754BC36000230361336B47
:10B64000002B00D003613063A06800F059FF15ADF6
:10B6500000210C22061C281C0DF0DEFE1420FDF734
:10B6600001FC6B4B98361593031C86CD86C3694B42
:10B67000C360002303613368002B00D00361012500
:10B6800004AB1B7C04AA2B43306008A9281C13744C
:10B690000BF0B1F9A06800F053FF03685E495B6AE4
:10B6A0009847A06800F04CFF03685C499B69984785
:10B6B000A06800F045FF0023026800931668049913
:10B6C0002A1CB047049B002B0AD0201C0BF065FA03
:10B6D000032805DDA06800F033FF0368DB689847A6
:10B6E0002F254B2604ABED18F618E81F07350BF095
:10B6F000C1F9B542F9D104250EAB0A93A06804AB99
:10B700005D7700F01DFF03680AA91B699847A068D0
:10B7100000F0F6FE03680AA95B6D9847A06800F088
:10B72000EFFE03680021DB6D9847A06800F0E8FE9B
:10B73000036802219B6D98470021201CFFF704FF3E
:10B740001820FDF78FFBA16800F0F8F9069BA168AF
:10B750001B6815A85B190093314B0CAE1B680027C2
:10B760000193304B1B6802932F4B1B6803932F4BA5
:10B770001A682F4B1B68FFF7C1FD3020FDF772FBE5
:10B78000079AA16800F09AFAA06800F0B9FE036871
:10B79000311C9B6A98470823A0683380DB187380AC
:10B7A000B78000F0ADFE0368311CDB6A9847291CA6
:10B7B000A0680BF0BCF9099B09215A19A0689B7875
:10B7C0000BF0C8F9A06800F09BFEC8210771A068C3
:10B7D000FFF776FD04AB1B7FBB4204D0A06800F0EE
:10B7E0008FFE0BF08DF909A80AF0F4F895239B0061
:10B7F0009D44F0BDACFDFFFF9EA30200176A02004E
:10B800000DB50100256A0200A9AF0100336A0200EC
:10B81000616A0200416A020035B8010069B801009E
:10B8200078250020082000207425002070250020A5
:10B830000C20002013B506226846FDF733FC094BA7
:10B840001C68002C0AD0694601A80AF018F9201CCF
:10B8500001A90BF0BEF901A80AF0BCF868460AF08D
:10B86000B9F813BD6C250020002373B501AE0C1C84
:10B87000311C051C019302F02DFE002802D1B27884
:10B88000064B1A70064B1868002806D061426141C9
:10B89000044BC9B21D800BF0A4F973BD88200020B1
:10B8A0006C25002000280020F0B5041C97B00391FF
:10B8B00007A899490592FDF7E5FB984908A8FDF707
:10B8C000E1FB221C0FAD1C32281C07A90AF0EEF880
:10B8D00008AA291C09A80AF0E9F8281C0AF07AF835
:10B8E0008F490AA8FDF7CEFBA06800F009FE3326B9
:10B8F0004F2703685B69984704ABF618FF18F01FE1
:10B9000007360BF0B7F8BE42F9D104230D95002598
:10B910000DAEA0687371357100F0F2FD0368311C43
:10B920005B6D9847A06800F0EBFD0368291C9B6DD8
:10B930009847A06800F0E4FD071C061C0A371F2288
:10B94000291C381C0DF068FDFD77301C0BF0CFF87A
:10B950000621A0680BF0EBF8099B09211A1DA068CD
:10B960009B780BF0F7F8A06800F0CAFDC8210571BC
:10B97000A068FFF7A5FCA06800F0C2FDFF272E1C01
:10B980000581A06800F0BCFD0BF0BAF80398FEF743
:10B99000BBFC0AA90CA80AF072F878220CA903983B
:10B9A000FEF77CFD0CA80AF015F8201C03990BF09B
:10B9B0002BF9201CFDF776F804956369DB073BD56E
:10B9C00058490BA800F07AFC0BA90CA80CF0DDF884
:10B9D00000230CA9009301931A1C0398FEF702FDA3
:10B9E0000CA80CF0C5F8049B002B01D1043F00E02B
:10B9F0000437282F09DDFE220023F90FBA424B41FC
:10BA0000049A5B421A40049206E003980AF040FC54
:10BA1000002F01DC0123049305980AF017FA00288F
:10BA200006D0012362699A43131C04221343636105
:10BA30000BA80CF09DF8002663695B072AD50398D4
:10BA4000FF21FEF753FD0025A36902229B5E9D4264
:10BA500018DA201C29B218300AF03EF80022011C26
:10BA60000398131C743000F07BFCC8208000FDF7A5
:10BA7000B3F803980AF00CFCC820FDF7ADF8636931
:10BA80009B0705D5FA208000FDF7A6F8002601E007
:10BA90000135D9E763699A0732D508250BA81D40FF
:10BAA00019D0214900F00AFC0BA90CA80CF06DF884
:10BAB00000230CA9009301931A1C0398FEF792FC33
:10BAC0000CA80CF055F81948FDF786F80BA80CF0F7
:10BAD0004FF8174E14E0174900F0F0FB0BA90CA823
:10BAE0000CF053F80CA92A1C2B1C00950195039807
:10BAF000FEF778FC0CA80CF03BF80BA80CF038F81B
:10BB00006420FDF769F80C4B01369E4200DC54E7D7
:10BB100009F02CFE51E7C046ACA30200BCA3020012
:10BB2000BEA30200CCA3020011A40200983A0000B8
:10BB30008C0A00004EA402008B0A0000F0B5051C20
:10BB40000024584BA9B0083303600391A9600BABE4
:10BB50000022191901344A70102CF9D15A8201328D
:10BB60001A7051491A1B013C095D5174002CF8D11F
:10BB70009A7B597B12020A43291C45270C310291FA
:10BB800025211B7813AE337002ABFF187282C918DF
:10BB90001022381C0DF023FC029B02AA73610123C2
:10BBA000338333770933FB771DAB1C706D239B18F0
:10BBB0001C706E23211C9B181EA80C227483F48316
:10BBC00074621C700DF028FC384B211C0C2223A839
:10BBD000B363F4630DF020FC354B0322F36446237A
:10BBE00002A95B18346505962C73DA7706AE00233C
:10BBF000321901345370102CF9D173820133337030
:10BC00002C4A331B013C125D5A74002CF8D12520BC
:10BC10001121B37B727B1B020BAF134332787B8203
:10BC200002ABC9183A70C01810220DF0D8FB0123DE
:10BC300003983B7505ABBB61BC8300F071FC0368E6
:10BC4000391C1B68984713ABDB8BA868AB8200F0EC
:10BC500067FC03680094A98A029ADF680123B84749
:10BC6000A86800F05DFC02901420FDF7FBF8071CAB
:10BC7000211C0C220DF0D0FB381C01233C61311C2F
:10BC800020C00822079306940DF0A9FB0A4BFB6025
:10BC9000029B9B69002B00D03B61281C029B9F618B
:10BCA00029B0F0BD68970200B5A40200096A02003D
:10BCB000FB690200A5A40200696C0200F0B5002631
:10BCC000041C764BDDB0083303608160C26086805F
:10BCD00086717349321C47A80BF066F8231C143395
:10BCE0000893042300930E330193113B049347A957
:10BCF000331C089A029603961DA8FFF797FA694924
:10BD0000321C47A80BF050F80423221C0093DB18C8
:10BD10000193073B15AF1032049347A9331C0296D9
:10BD2000039632A8FFF782FA381C5F49321C0BF0E9
:10BD30003BF8231C1C33099304230093DB18019365
:10BD4000073B391C0493099A331C0296039647A8B3
:10BD5000FFF76CFA5549321C381C0BF025F85420BB
:10BD6000FDF780F8231C183307930423051C009368
:10BD70000E330193113B391C0493079A331C02962E
:10BD80000396FFF753FA281C494BA5620AA9EC62F7
:10BD9000082230300A930B960DF021FB454B099990
:10BDA000AB63012329352B70268266822369042226
:10BDB000E36107980DF013FB0799042208980DF032
:10BDC0000EFB6622032304A95218D377BA22521815
:10BDD000D377872252005218D377A26AA685911C86
:10BDE000CB771DAB0C9332AB0D930F9247AB32491F
:10BDF000321C10A80E930AF0D7FF302245203121C3
:10BE000004AB9B181B7812323B7004AB9B181B8849
:10BE1000323A7B8204ABC918C0180DF0E0FA042353
:10BE20000CADA0683B75BD61BE8300F079FB036873
:10BE3000391C1B689847822204AB9B181B8854321C
:10BE4000238404AB9B181B885432A38404AB9B1837
:10BE50001B88A068638400F063FB071C1420FDF7B7
:10BE600001F8051C311C0C220DF0D6FA281C134BCE
:10BE70002E6110A910931196082210C00DF0AFFA90
:10BE80000F4BEB60BB69B34200D02B61BD61201C3E
:10BE9000FCF708FE201C5DB0F0BDC046789702009C
:10BEA000D5A4020005A50200F5A40200C5A4020065
:10BEB0007B6D0200E76C0200E5A402002DBF0100CB
:10BEC000116D0200F0B5041C0E1C151C85B000930A
:10BED0000CAB1B881030019309F00BFE26806580A7
:10BEE0001820FCF7BFFF071C02AD2B1C3E1C0AAA42
:10BEF00003CA03C3009B002108C6301C10220DF0AA
:10BF00008BFA291C301C08220DF069FA064B02221C
:10BF10007B61201C00230199A7600A43E360A28093
:10BF20002362636205B0F0BD3B6D0200F0B50B8982
:10BF30008DB00593CB68061C04934B88828C049CBF
:10BF40009A420DD1059B049A1B1BD318032B3BDD92
:10BF50002188628808A8012309F0D6FD0434F1E79E
:10BF6000428C049C9A422FD1059B049A1B1BD31828
:10BF7000032B29DD2388282006936388F76807931D
:10BF8000124B089300230993FCF76CFF6A4608AB39
:10BF9000051C03CB03C2C02306990293281C331C43
:10BFA000079AFFF78FFF3B68381C5B68291C98478E
:10BFB000002807D0002D05D0281C09F0C1FC281C42
:10BFC000FCF772FF0434CFE70DB0F0BDFD6D020049
:10BFD00070B5041C90B080680AF00BFF0223021CAD
:10BFE0001A401AD1A38D002B17D069460C4BA2859D
:10BFF0000493059204ABE56841CB41C11023111CA9
:10C00000029306A8231CFFF75DFF2B68281C9B6882
:10C0100006A9984706A809F093FC10B070BDC04669
:10C02000FD6D0200002815D0006041608260C36091
:10C03000046145618661C761444604624C464462BE
:10C04000544684625C46C462644604636E4646633A
:10C0500074468463002A06D0C46B043C043A256805
:10C060001560B442F9D18C6BA6464E6BB546002BD9
:10C0700006D0CC6B043C043B1D682560B442F9D16A
:10C080000C6BA446CC6AA3468C6AA2464C6AA146B5
:10C090000C6AA046CF698E694D690C69CB688A68C5
:10C0A000086849687047006041608260C36004614D
:10C0B00045618661C761444604624C464462544609
:10C0C00084625C46C462644604636E46466374469A
:10C0D0008463C46B043C043925680D60B442F9D113
:10C0E000C76986694569046970470060416082607C
:10C0F000C360046145618661C761444604624C4681
:10C100004462544684625C46C462644604636C467E
:10C1100044637446846304697047846BA646446B29
:10C12000A546046BA446C46AA346846AA246446A30
:10C13000A146046AA046C769866945690469C3685F
:10C14000826800684168704710B5002810D0041C50
:10C150000DF0A2F9431E201CE318984206D2027883
:10C160001978013B01705A700130F6E7002000E0B9
:10C17000004810BD17FCFFFFF7B5C743051C0E1C98
:10C18000FF0F002925D0002F00D0454200240134A4
:10C19000631EF318281C0A210193009404F09EF8F2
:10C1A000CB17C9185940019B30311970281C0A213E
:10C1B00003F0AEFF051EEAD1002F03D12D23009A14
:10C1C0000134B3540025301C3555FFF7BDFF281C42
:10C1D00000E00148FEBDC04617FCFFFF014B0360B5
:10C1E0007047C046509C020030B5046860888142A8
:10C1F00006DAA588AA4203DA002901DB002A01DA5F
:10C20000034804E05043611808188371002030BDD2
:10C2100017FCFFFFF0B5071C85B00D1C1E1C002984
:10C2200021DD002B1FD0046863880391994200DD53
:10C230000393A38802929A4200DD029300230634FE
:10C240000193019B029A93420BDA201C311C039A42
:10C250000DF0C5F83B6876195B88E418019B013343
:10C26000EEE7002000E0014805B0F0BD17FCFFFF3D
:10C27000F8B5041C0E1C151C1F1C002901DB002A2C
:10C2800002DA0D4B236015E0101C48430630FCF722
:10C29000E9FD206009F085FC2368201C5E809D80FC
:10C2A000002F05D0311C2A1C3B1CFFF7B3FF01E017
:10C2B0000BF073FCF8BDC046509C0200F0B5061CA4
:10C2C00087B00C1E05D000200F1C051C0190011C1E
:10C2D00015E0224B03603EE03022524294469C44DB
:10C2E0006246092A14D90A2B0DD1019B2D1801335E
:10C2F0000193A94200DA291C0020051C01373B7874
:10C30000002BE9D106E00028F8D001350020F5E740
:10C310000120F3E76A46928809B212B2301CFFF797
:10C32000A7FF33689D1D03AB1F1C2278002A12D083
:10C33000111C3039092902D81A70013309E0002292
:10C340001A70BB4205D9381C0DF029F83B1C287027
:10C3500001350134E9E7301C07B0F0BD509C020004
:10C36000F0B5041C87B004A8151C1E1C0F1CFCF79C
:10C37000FFFC23685A88954208DA9B889E4205DABA
:10C380001F2F03D9059B00939F4201DD18482DE024
:10C39000052300217B430193049B0293019B029A96
:10C3A000CB18A03BD35C002203938B199C465319F6
:10C3B000276800937888834202DABB889C4507DBB4
:10C3C0000132052AF3D101310529E7D100200DE022
:10C3D00063465843009BFB18102717411818039B0E
:10C3E0001F407B1E9F417F428771E9E707B0F0BD88
:10C3F00017FCFFFFF7B503689E1D5B885A1A019270
:10C4000000291CDD0C1C051C0027994202DB0BF0E7
:10C41000C4FB12E02B689B889F420EDA3119301C56
:10C42000019A0CF0DCFF019B211CF0180BF0A7FB1C
:10C430002B6801375B88F618ECE7002000E0014824
:10C44000FEBDC04617FCFFFF10B50548054C206037
:10C4500009F0AAFB201C0449044A0CF07CFF10BD23
:10C46000509C02007C250020717B020000200020EF
:10C4700038B50023041C0160436099420AD1064D7F
:10C480002B68002B02D10BF077FE286023689B00FD
:10C49000EB586360201C38BD8C25002070B5002847
:10C4A0000DD10C4C2668002E07D108300CF05EFF31
:10C4B000051C311CFFF7DCFF2560206808E0012225
:10C4C000054906480B68134002D1026043600A60C8
:10C4D00070BDC046802500209025002084250020C6
:10C4E000436810B5041C002B02D104480CF0A0FDD9
:10C4F000606803681B69984710BDC04615A5020017
:10C50000436810B5041C002B02D104480CF090FDC8
:10C51000606803681B69984710BDC04615A50200F6
:10C52000436810B5041C002B02D104480CF080FDB8
:10C53000606803689B69984710BDC04615A5020056
:10C54000436810B5041C002B02D104480CF070FDA8
:10C55000606803685B6A984710BDC04615A5020075
:10C5600000487047FFFF00007FB503791648002B95
:10C5700028D0164D164C2B78201C002B22D102AE51
:10C58000301C0BF02CFC002816D17388592B13D1CA
:10C590003378B288D91F012904D80092201C2021A9
:10C5A0000C4A03E0201C202100920B4A08F060FB9B
:10C5B00001232B70201C05E0201C084920220CF0D0
:10C5C00072FFF7E704B070BD38A5020059280020BB
:10C5D0005A28002052A502006FA5020094A502006F
:10C5E00010B5041C024B08C00BF0D7FC201C10BD7A
:10C5F0008898020010B5041C024B08C00BF0E2FC46
:10C60000201C10BD98980200F0B597B00593036800
:10C6100007AD1B6804910393111C2B1C061C91C9C8
:10C6200091C30024D3680CA8211C0C22EB602C6160
:10C630000CF0F2FE0B4B10940F9311AB1C70002208
:10C6400011AB191901344A70102CF8D15A82059A8D
:10C6500001930092301C04992A1C0CAB039CA04748
:10C6600017B0F0BD257E020038B5064B041C0360F0
:10C670004068002804D005690CF074FE281CF8E717
:10C68000201C38BD9897020038B5064B041C036087
:10C690004068002804D005690CF064FE281CF8E707
:10C6A000201C38BD6898020038B5064B041C036096
:10C6B0004068002804D005690CF054FE281CF8E7F7
:10C6C000201C38BD7898020038B5064B041C036066
:10C6D0004068002804D005690CF044FE281CF8E7E7
:10C6E000201C38BDA898020038B5064B041C036016
:10C6F0004068002804D005690CF034FE281CF8E7D7
:10C70000201C38BDB898020038B5064B041C0360E5
:10C710004068002804D005690CF024FE281CF8E7C6
:10C72000201C38BDB897020038B5064B041C0360C6
:10C730004068002804D005690CF014FE281CF8E7B6
:10C74000201C38BDC897020038B5064B041C036096
:10C750004068002804D005690CF004FE281CF8E7A6
:10C76000201C38BDA897020038B5064B041C036096
:10C770004068002804D005690CF0F4FD281CF8E797
:10C78000201C38BDF898020038B5064B041C036025
:10C790004068002804D005690CF0E4FD281CF8E787
:10C7A000201C38BD08990200FC3070B5C56B061C12
:10C7B000002D16D134200CF0D9FD041C291C342284
:10C7C0000CF02AFE084BA5606360084B656123618D
:10C7D000074B2562E361074BE562A362064B2360CA
:10C7E000F463F06B70BDC046989802008898020010
:10C7F000F89802000899020018990200FC3038B538
:10C80000046C051C002C0DD124200CF0AFFD064B50
:10C8100044608361054B8460C46004614461C46109
:10C8200003602864286C38BD6898020050990200A3
:10C83000FC3038B5046C051C002C0DD124200CF004
:10C8400095FD064B44608361054B8460C4600461C0
:10C850004461C46103602864286C38BD6898020094
:10C8600050990200104B10B5083303600F4B041CA5
:10C87000C36080230E4A5B00C250C018FDF720FC45
:10C88000201C0C4BB830E360FFF74EFF201CAC308F
:10C89000FFF73AFF201CA030FFF756FF201C6C303A
:10C8A000FFF7E2FE201C10BD80990200C89902002B
:10C8B000D09A0200D8970200F0B5051C041C87B07E
:10C8C000AC356B68AB60A868002807D0C368211C32
:10C8D0009847AB68002BF4D01B69F3E7251CB035F3
:10C8E0002868002804D006690CF03CFD301CF8E7ED
:10C8F000221CFC235832117828600B401370231C33
:10C900005C331870201C0A300BF02DFC201C3430D6
:10C910000BF029FC606E002804D005690CF022FDA4
:10C92000281CF8E7251C606698352868002804D084
:10C9300006690CF017FD301CF8E72860251CA435AB
:10C940002E68002E05D03769301C0CF00BFD3E1C04
:10C95000F7E72E6001AD311C281C0C220CF05CFDA9
:10C96000231C2A1C6C3383CA83C3094BE667A36765
:10C97000311C0C22281C0CF04FFD231C803307CDEA
:10C9800007C3301C034A90341A60266007B0F0BD1C
:10C99000097E0200FB7D02003C4BF0B508330360CA
:10C9A0003B4B0025C360A0234382031C041C1633A9
:10C9B00085B00571856005748582181C02930BF0A3
:10C9C000C5FB8022201CD201111C2B1C0095383085
:10C9D00000F00CFF231C4033181C03930BF0B6FB34
:10C9E000221CFC23643211780C270B401370231C8B
:10C9F000201C68331D70274B291CE3663A1C2567F1
:10CA000078300CF009FD231C261C88331D60224B56
:10CA10000836F3678436291C3A1C301C0CF0FCFCE9
:10CA20001E4B1F4AF360231CA03335611A601D4A58
:10CA30005D60DA601C4A1D619A61DD6102980BF04D
:10CA400092FB03980BF08FFB184B601CE360231CD8
:10CA5000C4331D705D709D70FF3002F06DFD8C233E
:10CA60005B00E550231C1933FF335D618023104ABE
:10CA70005B00E250231C0122201CFE3352425A86E6
:10CA8000023B9D63DD631D6405B0F0BD809902002B
:10CA9000D897020098970200097E0200FB7D0200F1
:10CAA000A8970200B8970200C8970200C899020030
:10CAB000D09A020038B5074C2368002B07D1A0207C
:10CAC00040000CF053FC051CFFF766FF2560206852
:10CAD00038BDC0469425002038B50C220D1C00211D
:10CAE000041C0CF099FC00232361024B2560201CE0
:10CAF000E36038BD177E020070B50025041C254B8D
:10CB000005710360244B45718360244BC56043610C
:10CB1000234B85610362234B4562C362224B05634D
:10CB20008363C563291C4430FFF7D6FF201C291CF2
:10CB30005830FFF7D1FF201C291C6C30FFF7CCFFC9
:10CB40001A4B251C2360231C8035F833002204C5B2
:10CB50009D42FBD1261CE936FF36281C0021082205
:10CB600008350CF059FCB542F7D18E239B00E21832
:10CB7000002308C59542FBD18E229200A3540C4B92
:10CB80000C4AE318A2180021198002339342FAD10B
:10CB9000201C70BDC8980200789802008898020096
:10CBA00098980200A8980200B8980200589A0200CB
:10CBB0003A0200006202000010B5041C02F060F8A6
:10CBC000034B1B68002B01D0201C984710BDC046AA
:10CBD00098250020F0B58DB0051C01F0B1FA0020B9
:10CBE000FFF768FF0368071C1B6998473B68041C34
:10CBF0009B69381C98473B68061C5B6A381C984741
:10CC0000031C288810380B2800D99BE003F0E6F9B4
:10CC1000063D9A9A9A5A9A9A9A619A76AF88201CF7
:10CC2000391C0BF0D1FC221C6B7B5832019313781A
:10CC3000A879191C0223194306AB11701F80012328
:10CC400006AA9370D070131C6A461279E91D9A7275
:10CC50002B1C0622163307A80B930CF0C0FB0B20ED
:10CC6000291C06ABC0180E3106220CF0B8FB943418
:10CC70006368A360A068002864D0C36806A99847C9
:10CC8000A368002BF4D01B69F3E7201C3049AF8860
:10CC90000BF09AFC221C022058321378A9798343A6
:10CCA000137006AB1F809970A0346368A360A068FE
:10CCB000002847D0C36806A99847A368002BF4D082
:10CCC0001B69F3E75B69A888A91D002B3AD0984738
:10CCD00038E0636EAF79002B34D01E4A002A31D081
:10CCE000A366A06E00282DD0C368391C9847A36E98
:10CCF000002B01D1636EF3E71B69F1E70122AB7BE7
:10CD0000E91D1A4001925A07920FDB08029206A809
:10CD100006226F7B04930CF062FB6A46127906AB25
:10CD2000DA716A46127A9F711A726A46127C201C66
:10CD30005A722B1C0F330993231C8C3380301B68D1
:10CD400006A99847301C291C0BF033FD0DB0F0BD2F
:10CD5000FFFF00008B8202000723D72802D9024B75
:10CD600018600023181C70479C250020014B186098
:10CD70007047C046982500201FB5A3238022DB0002
:10CD8000D205D3580820DB0700D405301C494822BF
:10CD90001C4B02F08BFA00280AD080B2002807D181
:10CDA000BFF34F8F184A194BDA60BFF34F8FFEE77E
:10CDB000002302A8029301330370154B1B684360E4
:10CDC0000BF061FA002801D0072017E068460BF04D
:10CDD00058FA0028F8D169460BF051FA0028F3D12F
:10CDE0000C4802F093FA80B2002807D10A4802F0FA
:10CDF00097FA80B2002801D100F0CEFA05B000BD4C
:10CE0000A02500208D8202000400FA0500ED00E05C
:10CE10009C250020D5CB0100B9CB010080B20028B1
:10CE200007D1BFF34F8F034A034BDA60BFF34F8F35
:10CE3000FEE770470400FA0500ED00E038B5002079
:10CE40000D1CFFF737FE03685B6A98472B78041CBC
:10CE5000142B17D002D8132B05D041E0152B16D078
:10CE6000222B37D03CE06B68012218889B786468DD
:10CE7000191C5D08DB0611405B0F2A40002C2FD0E7
:10CE8000A0472DE06B6818889978A3681EE06A684F
:10CE900091780B090907090F012902D0022908D04E
:10CEA00011E0013BDBB20021022B0DD80D49C95C1A
:10CEB0000AE00421012B07D0023B584243410131D3
:10CEC0005B42194000E000211088E368002B07D086
:10CED000984705E06B6818882369002B00D09847B5
:10CEE000002038BD9CA50200014B18787047C04651
:10CEF0007B280020F0B5314E87B0347800960026AC
:10CF0000B44257D11C1C01920D1C071C01F0EAFE13
:10CF1000B04201D00B264DE0002C0FD0222003A9F7
:10CF200003940BF0BBF9002808D00626082841D04E
:10CF30001138061C7042464104363BE0002302AA29
:10CF4000101C137000F0BAFE011EE3D101241C4E28
:10CF5000274030782540A04338436B000227051C4A
:10CF60000720019ABD4302401D431C23BA409D4344
:10CF70001543357003AD0C22281C0CF04DFA092026
:10CF8000104B311C039302ABC01805222F710CF01B
:10CF900026FA0D48291C00F001FF002807D00726BB
:10CFA000042807D0013E082804D0053602E0061CFC
:10CFB000009B1C70301C07B0F0BDC0467B280020D1
:10CFC000892000203DCE01007A28002008B50748BE
:10CFD00000F0AEFF0023984206D00733042803D0A8
:10CFE000013B082800D00533181C08BD7A28002012
:10CFF000002373B501930F4B01AD1B780E1C291C48
:10D000002B7001F067FA041E04D0042305280FD00A
:10D0100007330DE0281C311C00F0FAFE231C002809
:10D0200006D00723042803D0013B082800D005338D
:10D03000181C76BD7A28002073B5104C0E1C051CF8
:10D04000211C684605220CF0CAF9012E06D0022EDA
:10D0500011D1012223781343B34303E00222237842
:10D06000B3439343281C694623700BF015F9031E44
:10D0700002D00B2300E00223181C76BD892000207B
:10D0800008B5094B1A780923002A0AD0011C074861
:10D0900000F0F6FE0023984203D003330E2800D0A0
:10D0A0000333181C08BDC0467B2800207A280020C6
:10D0B000024B0B60092313607047C0469FA5020016
:10D0C00010B5041C0020FFF7F5FC03681B699847A6
:10D0D000031CF3331C7086235B00C050031C00212B
:10D0E000044AFC335A61044A99615A62F4300BF0E5
:10D0F000FEFE10BD8F840200A1840200012008B54D
:10D10000011C044A00F0B8FB031E00D00B23181CBE
:10D1100008BDC046C1D00100F0B593B00190002019
:10D120000C1CFFF7C7FC03685B6A9847FFF7DCFE3F
:10D1300006AB00280DD000221A7105AA069208221B
:10D14000181C1A730AAA9A60FFF79AFF002802D0E7
:10D1500052E01871187300231F1C23732371019B65
:10D16000BA331B78BB4246D907237B43019AD218B6
:10D17000B832D278022A31D1002506AE337BAB42D9
:10D1800036D907207843AB000293019B029A181806
:10D19000B368BB3099580BF083F800281BD0B368F4
:10D1A000029AA1689A58237B9B005A50237B013333
:10D1B0002373337B5A1E954208D01049B2685B181E
:10D1C0009B009B5803930399029BD15006AA137BA3
:10D1D000013B13730CE00135EDB2CEE701992279E2
:10D1E000CB182168BB33920053502379013323714C
:10D1F0007B1CDFB2B3E7002013B0F0BDFFFFFF3FA1
:10D20000F0B50C789BB00222012C43D04B88032C44
:10D2100004D1A03B221C9BB2204C03E00322203B04
:10D220001F4C9BB2A34235D88C881E4B03229C42D4
:10D2300030D80AAB009312AB02936A460023061C57
:10D2400013711373B83633780D1C041C002B05D0F2
:10D25000201C6946FFF760FF021E1BD104AF182295
:10D260000021381C0CF0D8F82B78381C3B70337830
:10D270003B726B46FB606B883B82AB887B820BF01A
:10D2800028F80322002805D158342378023A1343A2
:10D29000021C2370101C1BB0F0BDC046603F000094
:10D2A000E03F0000FF3F0000F0B59DB01F1C6B4643
:10D2B000051C1A70581C0622229E02AC0CF08FF836
:10D2C000002F07D03B8823807B886380BB88A380A6
:10D2D000FB8806E032232380DB186380F533A780C8
:10D2E000FF33E3800CAB04A9049314AB8B602F1CB9
:10D2F0000023B9370B710B733B78002B17D101203A
:10D300003B78022708A903405A000B78BB4304AFBF
:10D310004F601343002E10D0B27983430240134371
:10D320000B7033880B8173884B81B38811E0281C04
:10D33000FFF7F2FE0028E2D029E02A1C32321278F0
:10D340008343024013430B70AB8D0B81EB8D4B81FC
:10D350002B8E6846221C8B810AF0D1FF031C002013
:10D36000834214D00630082B11D005D80130042B8D
:10D370000DD0834208D109E00520112B07D0054AC2
:10D38000934203D0102B01D00B2000E004201DB0ED
:10D39000F0BDC046023200001FB5002302AC03936B
:10D3A000283323806933FF336380E380803B01A807
:10D3B000FF3B0D49052203700BF012F980B20028E3
:10D3C0000FD1802080000BF007F980B2002808D12F
:10D3D000201C0BF003F980B2002802D10BF0FAF800
:10D3E00080B204B010BDC046A8A5020073B50E1CE3
:10D3F000151C0268009394682B1C321C0149A0473D
:10D4000076BDC046FFFF000073B50E1C151C06AAB2
:10D41000117802680093019114692B1C321C014998
:10D42000A04776BDFFFF0000F0B50C1C002187B0BF
:10D430006E460091151C0CA90DAA0988127831803E
:10D440000193002A03D1011C4679F8310EE0201C1B
:10D45000291C6A460BF0C8F8031E3CD14FE0083186
:10D460000F1C083F3F88AF4203D00132B242F6D3CF
:10D470003DE030212032920012580132D27F0A4220
:10D4800035D00221002002AED206F3600CABD20FE1
:10D49000B3601C4B8A1A3580B270B0809C4207D1B1
:10D4A000FFF708FB03681B6998470BF090F8041C12
:10D4B000201C311C0BF09CF880B200281FD01128D2
:10D4C00013D00ADC08280ED0201C291C6A460BF059
:10D4D0008BF8002809D0032011E00B4B984204D0B0
:10D4E0000A4B9842F0D1062009E0052007E0201CF5
:10D4F000291C6A460BF078F80028ECD1063007B0FA
:10D50000F0BDC046FFFF0000033000000134000002
:10D51000F0B5051C97B0081C2E240B9100F014F9EF
:10D5200004ABE418109010A90120221C0BF05AF84B
:10D53000002801D00320CEE023880B9A0A90938321
:10D540000B9B0A9A1B7D934250D96B791D2B01D9F5
:10D550000720C0E00B9B9B690C930A9B0C9A9B00D5
:10D560009C586369002B46D1638B002B43D1631C0D
:10D57000DB7F022B3FD134E06169631CDA7FA31C9F
:10D58000DB7F0091618B00200191218B0291217F33
:10D5900003910C9904910D990591211C2931097869
:10D5A0000691211C2A310978079169791F31C90038
:10D5B0006918089110A90BF035FA0028BAD16B79D7
:10D5C000071C1A1C203292001F335451DB005B5B96
:10D5D000E3836B7901336B71231C28331B78BB42C7
:10D5E00030D80A980130C3B20A93A9E72B790020FA
:10D5F00001332B716FE0201C00F0A6F8002610907C
:10D600000D960C96231C28331B78B342B4D9626A5A
:10D61000B3009F58002311AA1370002011A9CA1843
:10D6200001335070102BF8D12C4B381C4B820BF06F
:10D630005CF8002803D07B690C937B8B0D9301363B
:10D64000F6B2DFE78E239B00EB5C132B00D97FE75C
:10D65000626ABB009E58002311AA1370002011A912
:10D66000CA1801335070102BF8D11C4B301C4B8260
:10D670000BF03BF80C9000282AD1301C00F064F825
:10D68000328B738B0092327F109001928E22920027
:10D69000AA5C0C981D32FF325200AA180232029284
:10D6A00010A972690BF094FA002800D042E78E238B
:10D6B0008E219B00EA5C8900531CDBB26B541D3346
:10D6C0007A32FF3392005B005651EB185B88F3838C
:10D6D000781CC7B280E717B0F0BDC0460129000032
:10D6E00038B5051C0AF04DFD041E1CD1281C211C58
:10D6F000782280300BF090FE281CE930211C50224B
:10D70000FF300BF089FE281C211C0822F8300BF09A
:10D7100083FE064B211CE81828220BF07DFE8E2389
:10D720009B00EC5400E00624201C38BD3A020000A7
:10D730000B68002B01D1036002E0024B0360002361
:10D74000436070478B820200F0B5438A87B0029332
:10D7500003780126002B3BD0002283190193214B33
:10D760001D680393AA4216D01121002351431E4F76
:10D7700079189C1E012C04D9019CCE5CE45CA64265
:10D7800007D10133102BF4D111235A43BF183E7C2B
:10D790001EE00132E6E7041C01980BF02CF9237817
:10D7A000071C061C002B01D112340194042D0FD04C
:10D7B00011246C430C4B01991C19201C10220BF0F6
:10D7C0000EFE0023A370E370039B013527741D60D8
:10D7D00005AB9E705888029B00040343181C07B0D9
:10D7E000F0BDC046E82500207C280020F7B5FA26C9
:10D7F000B6007143009308AB1B78041C081C154944
:10D80000171C019302F0F4FB85B2301C258078438D
:10D81000104902F0EDFB6B461B8880B2A3806B467B
:10D820001B796080A371032D01D8042323808023FA
:10D830002288DB019A4200D92380032801D80422E0
:10D84000628062889A4202D98023DB016380201CB7
:10D85000FEBDC046710200000120054A08B51378DC
:10D860005840044B10701B68002B00D0984708BD2F
:10D87000C0280020EC25002038B50C4B051C1520D5
:10D880000C1C1A600BF0D6F900280ED11530291C9B
:10D890000BF0D2F9002808D115300BF0C9F9002897
:10D8A00003D10330211C0BF0C9F938BDEC25002051
:10D8B000F0B58BB004AB9C1D0E230C22039001919C
:10D8C00023804B7806A95343234AD3181889221C76
:10D8D00003230BF009FA00283AD11827019B1F4DAA
:10D8E0005B7826885F4300933B1C0833EB18181CB9
:10D8F00006A9321C02930BF063FD2C1C00280DD1ED
:10D900000C22009B5343144AD318997A02231940DE
:10D910001ED1E81918220BF07FFD19E0E8194368C1
:10D920000F4F002B00D10F4F18250322009B06A993
:10D930006B43E250E3185E60321C02980BF04FFD1F
:10D94000019B039859782A1C694338236118B8470A
:10D9500000200BB0F0BDC04602280020B4260020F5
:10D96000F5EE010079EE0100F0B585B0041C0E1C47
:10D9700002AA8178214801F059FA00283CD10C23F1
:10D9800061781F4A4B43D3189B7A1E4F01925B0666
:10D9900005D4022E03D01C4F012E00D01B4F1C2596
:10D9A000A1781B4B694302A859182A1C0023B847C9
:10D9B000002813D1022E1FD00C234021627802A828
:10D9C0005343019AD3189A7A8A439A726178114B19
:10D9D00069432A1C59182B1CB84701E0022E0BD0B2
:10D9E0000C23227802A853430B4A211CD3189B7A9C
:10D9F0000A4A9B009B58984705B0F0BDDC260020E2
:10DA000002280020F5EE010079EE0100ED8C020005
:10DA1000F025002098260020CC260020689C0200DB
:10DA2000F7B518220190437829485A4381184C6869
:10DA3000284F002C0FD00C2159437918897A4DB208
:10DA4000002D07DA490605D4151C0835A6B245197C
:10DA5000145802E00024261C251C0C225343FB18FA
:10DA60001889291C321C231C0BF03CF90B2818D1F7
:10DA70000C22019B291C5B785343FB181889321C2C
:10DA800001230BF02FF900280ED00C21019B124A24
:10DA90005B784B43FF1838890BF022F900280AD134
:10DAA00015E0002803D100E00124002000E00B482D
:10DAB000012C0CD1E9E70222094BC318934303D090
:10DAC000082801D0112801D1044800E00020FEBD43
:10DAD000B426002002280020FFFF00004180000043
